{
  "_format": "hh-sol-artifact-1",
  "contractName": "SuiaClub",
  "sourceName": "contracts/Club.sol",
  "abi": [
    {
      "inputs": [
        {
          "internalType": "uint256",
          "name": "_fee",
          "type": "uint256"
        }
      ],
      "stateMutability": "nonpayable",
      "type": "constructor"
    },
    {
      "inputs": [
        {
          "internalType": "address",
          "name": "owner",
          "type": "address"
        }
      ],
      "name": "OwnableInvalidOwner",
      "type": "error"
    },
    {
      "inputs": [
        {
          "internalType": "address",
          "name": "account",
          "type": "address"
        }
      ],
      "name": "OwnableUnauthorizedAccount",
      "type": "error"
    },
    {
      "anonymous": false,
      "inputs": [
        {
          "indexed": true,
          "internalType": "uint256",
          "name": "club_id",
          "type": "uint256"
        },
        {
          "indexed": true,
          "internalType": "address",
          "name": "admin",
          "type": "address"
        }
      ],
      "name": "ClubAdminAdded",
      "type": "event"
    },
    {
      "anonymous": false,
      "inputs": [
        {
          "indexed": true,
          "internalType": "uint256",
          "name": "club_id",
          "type": "uint256"
        },
        {
          "indexed": true,
          "internalType": "address",
          "name": "admin",
          "type": "address"
        }
      ],
      "name": "ClubAdminRemoved",
      "type": "event"
    },
    {
      "anonymous": false,
      "inputs": [
        {
          "indexed": true,
          "internalType": "uint256",
          "name": "id",
          "type": "uint256"
        },
        {
          "indexed": true,
          "internalType": "address",
          "name": "owner",
          "type": "address"
        },
        {
          "indexed": true,
          "internalType": "string",
          "name": "name",
          "type": "string"
        }
      ],
      "name": "ClubCreated",
      "type": "event"
    },
    {
      "anonymous": false,
      "inputs": [
        {
          "indexed": true,
          "internalType": "uint256",
          "name": "club_id",
          "type": "uint256"
        },
        {
          "indexed": true,
          "internalType": "address",
          "name": "member",
          "type": "address"
        }
      ],
      "name": "ClubMemberExited",
      "type": "event"
    },
    {
      "anonymous": false,
      "inputs": [
        {
          "indexed": true,
          "internalType": "uint256",
          "name": "club_id",
          "type": "uint256"
        },
        {
          "indexed": true,
          "internalType": "address",
          "name": "member",
          "type": "address"
        }
      ],
      "name": "ClubMemberJoined",
      "type": "event"
    },
    {
      "anonymous": false,
      "inputs": [
        {
          "indexed": true,
          "internalType": "address",
          "name": "previousOwner",
          "type": "address"
        },
        {
          "indexed": true,
          "internalType": "address",
          "name": "newOwner",
          "type": "address"
        }
      ],
      "name": "OwnershipTransferred",
      "type": "event"
    },
    {
      "inputs": [
        {
          "internalType": "uint256",
          "name": "_club_id",
          "type": "uint256"
        },
        {
          "internalType": "address",
          "name": "_admin",
          "type": "address"
        }
      ],
      "name": "add_club_admin",
      "outputs": [],
      "stateMutability": "nonpayable",
      "type": "function"
    },
    {
      "inputs": [],
      "name": "club_count",
      "outputs": [
        {
          "internalType": "uint256",
          "name": "",
          "type": "uint256"
        }
      ],
      "stateMutability": "view",
      "type": "function"
    },
    {
      "inputs": [
        {
          "internalType": "address",
          "name": "",
          "type": "address"
        },
        {
          "internalType": "uint256",
          "name": "",
          "type": "uint256"
        }
      ],
      "name": "club_owner_to_ids",
      "outputs": [
        {
          "internalType": "uint256",
          "name": "",
          "type": "uint256"
        }
      ],
      "stateMutability": "view",
      "type": "function"
    },
    {
      "inputs": [
        {
          "internalType": "string",
          "name": "_name",
          "type": "string"
        }
      ],
      "name": "create_club",
      "outputs": [],
      "stateMutability": "payable",
      "type": "function"
    },
    {
      "inputs": [
        {
          "internalType": "uint256",
          "name": "_club_id",
          "type": "uint256"
        }
      ],
      "name": "exit_club",
      "outputs": [
        {
          "internalType": "bool",
          "name": "",
          "type": "bool"
        }
      ],
      "stateMutability": "nonpayable",
      "type": "function"
    },
    {
      "inputs": [],
      "name": "fee",
      "outputs": [
        {
          "internalType": "uint256",
          "name": "",
          "type": "uint256"
        }
      ],
      "stateMutability": "view",
      "type": "function"
    },
    {
      "inputs": [
        {
          "internalType": "uint256",
          "name": "_club_id",
          "type": "uint256"
        }
      ],
      "name": "get_club_admins",
      "outputs": [
        {
          "internalType": "address[]",
          "name": "",
          "type": "address[]"
        }
      ],
      "stateMutability": "view",
      "type": "function"
    },
    {
      "inputs": [
        {
          "internalType": "uint256",
          "name": "_club_id",
          "type": "uint256"
        }
      ],
      "name": "get_club_member_count",
      "outputs": [
        {
          "internalType": "uint256",
          "name": "",
          "type": "uint256"
        }
      ],
      "stateMutability": "view",
      "type": "function"
    },
    {
      "inputs": [
        {
          "internalType": "uint256",
          "name": "_club_id",
          "type": "uint256"
        }
      ],
      "name": "get_club_members",
      "outputs": [
        {
          "internalType": "address[]",
          "name": "",
          "type": "address[]"
        }
      ],
      "stateMutability": "view",
      "type": "function"
    },
    {
      "inputs": [
        {
          "internalType": "uint256",
          "name": "_club_id",
          "type": "uint256"
        },
        {
          "internalType": "uint256",
          "name": "_offset",
          "type": "uint256"
        },
        {
          "internalType": "uint256",
          "name": "_limit",
          "type": "uint256"
        }
      ],
      "name": "get_club_members_paged",
      "outputs": [
        {
          "internalType": "address[]",
          "name": "",
          "type": "address[]"
        }
      ],
      "stateMutability": "view",
      "type": "function"
    },
    {
      "inputs": [
        {
          "internalType": "uint256",
          "name": "_club_id",
          "type": "uint256"
        }
      ],
      "name": "get_club_name",
      "outputs": [
        {
          "internalType": "string",
          "name": "",
          "type": "string"
        }
      ],
      "stateMutability": "view",
      "type": "function"
    },
    {
      "inputs": [
        {
          "internalType": "uint256",
          "name": "_club_id",
          "type": "uint256"
        }
      ],
      "name": "get_club_owner",
      "outputs": [
        {
          "internalType": "address",
          "name": "",
          "type": "address"
        }
      ],
      "stateMutability": "view",
      "type": "function"
    },
    {
      "inputs": [
        {
          "internalType": "address",
          "name": "_owner",
          "type": "address"
        }
      ],
      "name": "get_clubs_by_owner",
      "outputs": [
        {
          "internalType": "uint256[]",
          "name": "",
          "type": "uint256[]"
        }
      ],
      "stateMutability": "view",
      "type": "function"
    },
    {
      "inputs": [
        {
          "internalType": "uint256",
          "name": "_club_id",
          "type": "uint256"
        },
        {
          "internalType": "address",
          "name": "_user",
          "type": "address"
        }
      ],
      "name": "is_authorized_for_club",
      "outputs": [
        {
          "internalType": "bool",
          "name": "",
          "type": "bool"
        }
      ],
      "stateMutability": "view",
      "type": "function"
    },
    {
      "inputs": [
        {
          "internalType": "uint256",
          "name": "_club_id",
          "type": "uint256"
        }
      ],
      "name": "join_club",
      "outputs": [
        {
          "internalType": "bool",
          "name": "",
          "type": "bool"
        }
      ],
      "stateMutability": "nonpayable",
      "type": "function"
    },
    {
      "inputs": [],
      "name": "owner",
      "outputs": [
        {
          "internalType": "address",
          "name": "",
          "type": "address"
        }
      ],
      "stateMutability": "view",
      "type": "function"
    },
    {
      "inputs": [
        {
          "internalType": "uint256",
          "name": "_club_id",
          "type": "uint256"
        },
        {
          "internalType": "address",
          "name": "_admin",
          "type": "address"
        }
      ],
      "name": "remove_club_admin",
      "outputs": [],
      "stateMutability": "nonpayable",
      "type": "function"
    },
    {
      "inputs": [],
      "name": "renounceOwnership",
      "outputs": [],
      "stateMutability": "nonpayable",
      "type": "function"
    },
    {
      "inputs": [
        {
          "internalType": "uint256",
          "name": "_fee",
          "type": "uint256"
        }
      ],
      "name": "set_fee",
      "outputs": [],
      "stateMutability": "nonpayable",
      "type": "function"
    },
    {
      "inputs": [
        {
          "internalType": "address",
          "name": "newOwner",
          "type": "address"
        }
      ],
      "name": "transferOwnership",
      "outputs": [],
      "stateMutability": "nonpayable",
      "type": "function"
    },
    {
      "inputs": [
        {
          "internalType": "uint256",
          "name": "_club_id",
          "type": "uint256"
        },
        {
          "internalType": "string",
          "name": "_name",
          "type": "string"
        }
      ],
      "name": "update_club_name",
      "outputs": [],
      "stateMutability": "nonpayable",
      "type": "function"
    },
    {
      "inputs": [],
      "name": "withdraw",
      "outputs": [],
      "stateMutability": "nonpayable",
      "type": "function"
    }
  ],
  "bytecode": "0x60806040523480156200001157600080fd5b50604051620026f1380380620026f18339818101604052810190620000379190620001d1565b33600073ffffffffffffffffffffffffffffffffffffffff168173ffffffffffffffffffffffffffffffffffffffff1603620000ad5760006040517f1e4fbdf7000000000000000000000000000000000000000000000000000000008152600401620000a4919062000248565b60405180910390fd5b620000be81620000cd60201b60201c565b50806001819055505062000265565b60008060009054906101000a900473ffffffffffffffffffffffffffffffffffffffff169050816000806101000a81548173ffffffffffffffffffffffffffffffffffffffff021916908373ffffffffffffffffffffffffffffffffffffffff1602179055508173ffffffffffffffffffffffffffffffffffffffff168173ffffffffffffffffffffffffffffffffffffffff167f8be0079c531659141344cd1fd0a4f28419497f9722a3daafe3b4186f6b6457e060405160405180910390a35050565b600080fd5b6000819050919050565b620001ab8162000196565b8114620001b757600080fd5b50565b600081519050620001cb81620001a0565b92915050565b600060208284031215620001ea57620001e962000191565b5b6000620001fa84828501620001ba565b91505092915050565b600073ffffffffffffffffffffffffffffffffffffffff82169050919050565b6000620002308262000203565b9050919050565b620002428162000223565b82525050565b60006020820190506200025f600083018462000237565b92915050565b61247c80620002756000396000f3fe6080604052600436106101355760003560e01c80636159e5d0116100ab5780638e1be43c1161006f5780638e1be43c1461043d578063a9e1f71114610466578063c6c806c5146104a3578063ddca3f43146104e0578063e79b039e1461050b578063f2fde38b1461054857610135565b80636159e5d014610358578063715018a61461039557806373c2a228146103ac5780637f97471a146103d55780638da5cb5b1461041257610135565b80633ccfd60b116100fd5780633ccfd60b14610236578063402662ab1461024d57806343a527ca1461028a578063483b39ea146102b55780634a6c14a6146102de5780635caa42d21461031b57610135565b80631aa02d591461013a5780631d3e5406146101635780632dc5c48d146101a05780633513d463146101bc5780633a8f98ae146101f9575b600080fd5b34801561014657600080fd5b50610161600480360381019061015c91906117a1565b610571565b005b34801561016f57600080fd5b5061018a6004803603810190610185919061182c565b610583565b6040516101979190611887565b60405180910390f35b6101ba60048036038101906101b591906119e8565b610659565b005b3480156101c857600080fd5b506101e360048036038101906101de91906117a1565b61083b565b6040516101f09190611a40565b60405180910390f35b34801561020557600080fd5b50610220600480360381019061021b9190611a5b565b6108ac565b60405161022d9190611b46565b60405180910390f35b34801561024257600080fd5b5061024b610943565b005b34801561025957600080fd5b50610274600480360381019061026f91906117a1565b61099b565b6040516102819190611c26565b60405180910390f35b34801561029657600080fd5b5061029f610a0c565b6040516102ac9190611a40565b60405180910390f35b3480156102c157600080fd5b506102dc60048036038101906102d7919061182c565b610a12565b005b3480156102ea57600080fd5b5061030560048036038101906103009190611c48565b610ad2565b6040516103129190611c26565b60405180910390f35b34801561032757600080fd5b50610342600480360381019061033d9190611c9b565b610ca7565b60405161034f9190611a40565b60405180910390f35b34801561036457600080fd5b5061037f600480360381019061037a91906117a1565b610cd8565b60405161038c9190611c26565b60405180910390f35b3480156103a157600080fd5b506103aa610d49565b005b3480156103b857600080fd5b506103d360048036038101906103ce919061182c565b610d5d565b005b3480156103e157600080fd5b506103fc60048036038101906103f791906117a1565b610e1d565b6040516104099190611887565b60405180910390f35b34801561041e57600080fd5b50610427610ee9565b6040516104349190611cea565b60405180910390f35b34801561044957600080fd5b50610464600480360381019061045f9190611d05565b610f12565b005b34801561047257600080fd5b5061048d600480360381019061048891906117a1565b611011565b60405161049a9190611cea565b60405180910390f35b3480156104af57600080fd5b506104ca60048036038101906104c591906117a1565b61109b565b6040516104d79190611de0565b60405180910390f35b3480156104ec57600080fd5b506104f561118d565b6040516105029190611a40565b60405180910390f35b34801561051757600080fd5b50610532600480360381019061052d91906117a1565b611193565b60405161053f9190611887565b60405180910390f35b34801561055457600080fd5b5061056f600480360381019061056a9190611a5b565b61125f565b005b6105796112e5565b8060018190555050565b600060035483106105c9576040517f08c379a00000000000000000000000000000000000000000000000000000000081526004016105c090611e4e565b60405180910390fd5b60006002600085815260200190815260200160002090508060020160009054906101000a900473ffffffffffffffffffffffffffffffffffffffff1673ffffffffffffffffffffffffffffffffffffffff168373ffffffffffffffffffffffffffffffffffffffff161480610650575061064f838260030161136c90919063ffffffff16565b5b91505092915050565b60015434101561069e576040517f08c379a000000000000000000000000000000000000000000000000000000000815260040161069590611ee0565b60405180910390fd5b60008151116106e2576040517f08c379a00000000000000000000000000000000000000000000000000000000081526004016106d990611f4c565b60405180910390fd5b60006003549050600360008154809291906106fc90611f9b565b91905055506000600260008381526020019081526020016000209050818160000181905550338160020160006101000a81548173ffffffffffffffffffffffffffffffffffffffff021916908373ffffffffffffffffffffffffffffffffffffffff1602179055508281600101908161077591906121ef565b50600460003373ffffffffffffffffffffffffffffffffffffffff1673ffffffffffffffffffffffffffffffffffffffff168152602001908152602001600020829080600181540180825580915050600190039060005260206000200160009091909190915055826040516107ea91906122fd565b60405180910390203373ffffffffffffffffffffffffffffffffffffffff16837f2b0a1288688125b91f3436c28511a0839c6ac465ac44e6cb0c6ea6e60e7e721f60405160405180910390a4505050565b60006003548210610881576040517f08c379a000000000000000000000000000000000000000000000000000000000815260040161087890611e4e565b60405180910390fd5b60006002600084815260200190815260200160002090506108a48160050161139c565b915050919050565b6060600460008373ffffffffffffffffffffffffffffffffffffffff1673ffffffffffffffffffffffffffffffffffffffff16815260200190815260200160002080548060200260200160405190810160405280929190818152602001828054801561093757602002820191906000526020600020905b815481526020019060010190808311610923575b50505050509050919050565b61094b6112e5565b610953610ee9565b73ffffffffffffffffffffffffffffffffffffffff166108fc479081150290604051600060405180830381858888f19350505050158015610998573d6000803e3d6000fd5b50565b606060035482106109e1576040517f08c379a00000000000000000000000000000000000000000000000000000000081526004016109d890611e4e565b60405180910390fd5b6000600260008481526020019081526020016000209050610a04816005016113b1565b915050919050565b60035481565b6003548210610a56576040517f08c379a0000000000000000000000000000000000000000000000000000000008152600401610a4d90611e4e565b60405180910390fd5b610a608233610583565b610a9f576040517f08c379a0000000000000000000000000000000000000000000000000000000008152600401610a9690612360565b60405180910390fd5b6000600260008481526020019081526020016000209050610acc82826003016113d290919063ffffffff16565b50505050565b60606003548410610b18576040517f08c379a0000000000000000000000000000000000000000000000000000000008152600401610b0f90611e4e565b60405180910390fd5b60006002600086815260200190815260200160002090506000610b3d8260050161139c565b905060008486610b4d9190612380565b905081811115610b5b578190505b858111610bb657600067ffffffffffffffff811115610b7d57610b7c6118bd565b5b604051908082528060200260200182016040528015610bab5781602001602082028036833780820191505090505b509350505050610ca0565b60008682610bc491906123b4565b67ffffffffffffffff811115610bdd57610bdc6118bd565b5b604051908082528060200260200182016040528015610c0b5781602001602082028036833780820191505090505b50905060008790505b82811015610c9757610c32818660050161140290919063ffffffff16565b828983610c3f91906123b4565b81518110610c5057610c4f6123e8565b5b602002602001019073ffffffffffffffffffffffffffffffffffffffff16908173ffffffffffffffffffffffffffffffffffffffff16815250508080600101915050610c14565b50809450505050505b9392505050565b60046020528160005260406000208181548110610cc357600080fd5b90600052602060002001600091509150505481565b60606003548210610d1e576040517f08c379a0000000000000000000000000000000000000000000000000000000008152600401610d1590611e4e565b60405180910390fd5b6000600260008481526020019081526020016000209050610d41816003016113b1565b915050919050565b610d516112e5565b610d5b600061141c565b565b6003548210610da1576040517f08c379a0000000000000000000000000000000000000000000000000000000008152600401610d9890611e4e565b60405180910390fd5b610dab8233610583565b610dea576040517f08c379a0000000000000000000000000000000000000000000000000000000008152600401610de190612360565b60405180910390fd5b6000600260008481526020019081526020016000209050610e1782826003016114e090919063ffffffff16565b50505050565b60006003548210610e63576040517f08c379a0000000000000000000000000000000000000000000000000000000008152600401610e5a90611e4e565b60405180910390fd5b60006002600084815260200190815260200160002090506000610e9233836005016113d290919063ffffffff16565b90508015610edf573373ffffffffffffffffffffffffffffffffffffffff16847fb035219b2663bd7bec4d933f5eb0d54e192d9d1de93ae63009b42eb940aba94160405160405180910390a35b8092505050919050565b60008060009054906101000a900473ffffffffffffffffffffffffffffffffffffffff16905090565b6003548210610f56576040517f08c379a0000000000000000000000000000000000000000000000000000000008152600401610f4d90611e4e565b60405180910390fd5b6000815111610f9a576040517f08c379a0000000000000000000000000000000000000000000000000000000008152600401610f9190611f4c565b60405180910390fd5b610fa48233610583565b610fe3576040517f08c379a0000000000000000000000000000000000000000000000000000000008152600401610fda90612360565b60405180910390fd5b60006002600084815260200190815260200160002090508181600101908161100b91906121ef565b50505050565b60006003548210611057576040517f08c379a000000000000000000000000000000000000000000000000000000000815260040161104e90611e4e565b60405180910390fd5b60006002600084815260200190815260200160002090508060020160009054906101000a900473ffffffffffffffffffffffffffffffffffffffff16915050919050565b606060035482106110e1576040517f08c379a00000000000000000000000000000000000000000000000000000000081526004016110d890611e4e565b60405180910390fd5b600060026000848152602001908152602001600020905080600101805461110790612012565b80601f016020809104026020016040519081016040528092919081815260200182805461113390612012565b80156111805780601f1061115557610100808354040283529160200191611180565b820191906000526020600020905b81548152906001019060200180831161116357829003601f168201915b5050505050915050919050565b60015481565b600060035482106111d9576040517f08c379a00000000000000000000000000000000000000000000000000000000081526004016111d090611e4e565b60405180910390fd5b6000600260008481526020019081526020016000209050600061120833836005016114e090919063ffffffff16565b90508015611255573373ffffffffffffffffffffffffffffffffffffffff16847ffa4fbc4c138ea756dcc7a07bc8a747bd1edfd87268c225d7a289aa626aef179160405160405180910390a35b8092505050919050565b6112676112e5565b600073ffffffffffffffffffffffffffffffffffffffff168173ffffffffffffffffffffffffffffffffffffffff16036112d95760006040517f1e4fbdf70000000000000000000000000000000000000000000000000000000081526004016112d09190611cea565b60405180910390fd5b6112e28161141c565b50565b6112ed611510565b73ffffffffffffffffffffffffffffffffffffffff1661130b610ee9565b73ffffffffffffffffffffffffffffffffffffffff161461136a5761132e611510565b6040517f118cdaa70000000000000000000000000000000000000000000000000000000081526004016113619190611cea565b60405180910390fd5b565b6000611394836000018373ffffffffffffffffffffffffffffffffffffffff1660001b611518565b905092915050565b60006113aa8260000161153b565b9050919050565b606060006113c18360000161154c565b905060608190508092505050919050565b60006113fa836000018373ffffffffffffffffffffffffffffffffffffffff1660001b6115a8565b905092915050565b600061141183600001836116bc565b60001c905092915050565b60008060009054906101000a900473ffffffffffffffffffffffffffffffffffffffff169050816000806101000a81548173ffffffffffffffffffffffffffffffffffffffff021916908373ffffffffffffffffffffffffffffffffffffffff1602179055508173ffffffffffffffffffffffffffffffffffffffff168173ffffffffffffffffffffffffffffffffffffffff167f8be0079c531659141344cd1fd0a4f28419497f9722a3daafe3b4186f6b6457e060405160405180910390a35050565b6000611508836000018373ffffffffffffffffffffffffffffffffffffffff1660001b6116e7565b905092915050565b600033905090565b600080836001016000848152602001908152602001600020541415905092915050565b600081600001805490509050919050565b60608160000180548060200260200160405190810160405280929190818152602001828054801561159c57602002820191906000526020600020905b815481526020019060010190808311611588575b50505050509050919050565b600080836001016000848152602001908152602001600020549050600081146116b05760006001826115da91906123b4565b90506000600186600001805490506115f291906123b4565b9050808214611661576000866000018281548110611613576116126123e8565b5b9060005260206000200154905080876000018481548110611637576116366123e8565b5b90600052602060002001819055508387600101600083815260200190815260200160002081905550505b8560000180548061167557611674612417565b5b6001900381819060005260206000200160009055905585600101600086815260200190815260200160002060009055600193505050506116b6565b60009150505b92915050565b60008260000182815481106116d4576116d36123e8565b5b9060005260206000200154905092915050565b60006116f38383611518565b61174c578260000182908060018154018082558091505060019003906000526020600020016000909190919091505582600001805490508360010160008481526020019081526020016000208190555060019050611751565b600090505b92915050565b6000604051905090565b600080fd5b600080fd5b6000819050919050565b61177e8161176b565b811461178957600080fd5b50565b60008135905061179b81611775565b92915050565b6000602082840312156117b7576117b6611761565b5b60006117c58482850161178c565b91505092915050565b600073ffffffffffffffffffffffffffffffffffffffff82169050919050565b60006117f9826117ce565b9050919050565b611809816117ee565b811461181457600080fd5b50565b60008135905061182681611800565b92915050565b6000806040838503121561184357611842611761565b5b60006118518582860161178c565b925050602061186285828601611817565b9150509250929050565b60008115159050919050565b6118818161186c565b82525050565b600060208201905061189c6000830184611878565b92915050565b600080fd5b600080fd5b6000601f19601f8301169050919050565b7f4e487b7100000000000000000000000000000000000000000000000000000000600052604160045260246000fd5b6118f5826118ac565b810181811067ffffffffffffffff82111715611914576119136118bd565b5b80604052505050565b6000611927611757565b905061193382826118ec565b919050565b600067ffffffffffffffff821115611953576119526118bd565b5b61195c826118ac565b9050602081019050919050565b82818337600083830152505050565b600061198b61198684611938565b61191d565b9050828152602081018484840111156119a7576119a66118a7565b5b6119b2848285611969565b509392505050565b600082601f8301126119cf576119ce6118a2565b5b81356119df848260208601611978565b91505092915050565b6000602082840312156119fe576119fd611761565b5b600082013567ffffffffffffffff811115611a1c57611a1b611766565b5b611a28848285016119ba565b91505092915050565b611a3a8161176b565b82525050565b6000602082019050611a556000830184611a31565b92915050565b600060208284031215611a7157611a70611761565b5b6000611a7f84828501611817565b91505092915050565b600081519050919050565b600082825260208201905092915050565b6000819050602082019050919050565b611abd8161176b565b82525050565b6000611acf8383611ab4565b60208301905092915050565b6000602082019050919050565b6000611af382611a88565b611afd8185611a93565b9350611b0883611aa4565b8060005b83811015611b39578151611b208882611ac3565b9750611b2b83611adb565b925050600181019050611b0c565b5085935050505092915050565b60006020820190508181036000830152611b608184611ae8565b905092915050565b600081519050919050565b600082825260208201905092915050565b6000819050602082019050919050565b611b9d816117ee565b82525050565b6000611baf8383611b94565b60208301905092915050565b6000602082019050919050565b6000611bd382611b68565b611bdd8185611b73565b9350611be883611b84565b8060005b83811015611c19578151611c008882611ba3565b9750611c0b83611bbb565b925050600181019050611bec565b5085935050505092915050565b60006020820190508181036000830152611c408184611bc8565b905092915050565b600080600060608486031215611c6157611c60611761565b5b6000611c6f8682870161178c565b9350506020611c808682870161178c565b9250506040611c918682870161178c565b9150509250925092565b60008060408385031215611cb257611cb1611761565b5b6000611cc085828601611817565b9250506020611cd18582860161178c565b9150509250929050565b611ce4816117ee565b82525050565b6000602082019050611cff6000830184611cdb565b92915050565b60008060408385031215611d1c57611d1b611761565b5b6000611d2a8582860161178c565b925050602083013567ffffffffffffffff811115611d4b57611d4a611766565b5b611d57858286016119ba565b9150509250929050565b600081519050919050565b600082825260208201905092915050565b60005b83811015611d9b578082015181840152602081019050611d80565b60008484015250505050565b6000611db282611d61565b611dbc8185611d6c565b9350611dcc818560208601611d7d565b611dd5816118ac565b840191505092915050565b60006020820190508181036000830152611dfa8184611da7565b905092915050565b7f436c756220646f6573206e6f7420657869737400000000000000000000000000600082015250565b6000611e38601383611d6c565b9150611e4382611e02565b602082019050919050565b60006020820190508181036000830152611e6781611e2b565b9050919050565b7f496e73756666696369656e742066756e647320746f2063726561746520636c7560008201527f6200000000000000000000000000000000000000000000000000000000000000602082015250565b6000611eca602183611d6c565b9150611ed582611e6e565b604082019050919050565b60006020820190508181036000830152611ef981611ebd565b9050919050565b7f696e76616c696420636c7562206e616d65000000000000000000000000000000600082015250565b6000611f36601183611d6c565b9150611f4182611f00565b602082019050919050565b60006020820190508181036000830152611f6581611f29565b9050919050565b7f4e487b7100000000000000000000000000000000000000000000000000000000600052601160045260246000fd5b6000611fa68261176b565b91507fffffffffffffffffffffffffffffffffffffffffffffffffffffffffffffffff8203611fd857611fd7611f6c565b5b600182019050919050565b7f4e487b7100000000000000000000000000000000000000000000000000000000600052602260045260246000fd5b6000600282049050600182168061202a57607f821691505b60208210810361203d5761203c611fe3565b5b50919050565b60008190508160005260206000209050919050565b60006020601f8301049050919050565b600082821b905092915050565b6000600883026120a57fffffffffffffffffffffffffffffffffffffffffffffffffffffffffffffffff82612068565b6120af8683612068565b95508019841693508086168417925050509392505050565b6000819050919050565b60006120ec6120e76120e28461176b565b6120c7565b61176b565b9050919050565b6000819050919050565b612106836120d1565b61211a612112826120f3565b848454612075565b825550505050565b600090565b61212f612122565b61213a8184846120fd565b505050565b5b8181101561215e57612153600082612127565b600181019050612140565b5050565b601f8211156121a35761217481612043565b61217d84612058565b8101602085101561218c578190505b6121a061219885612058565b83018261213f565b50505b505050565b600082821c905092915050565b60006121c6600019846008026121a8565b1980831691505092915050565b60006121df83836121b5565b9150826002028217905092915050565b6121f882611d61565b67ffffffffffffffff811115612211576122106118bd565b5b61221b8254612012565b612226828285612162565b600060209050601f8311600181146122595760008415612247578287015190505b61225185826121d3565b8655506122b9565b601f19841661226786612043565b60005b8281101561228f5784890151825560018201915060208501945060208101905061226a565b868310156122ac57848901516122a8601f8916826121b5565b8355505b6001600288020188555050505b505050505050565b600081905092915050565b60006122d782611d61565b6122e181856122c1565b93506122f1818560208601611d7d565b80840191505092915050565b600061230982846122cc565b915081905092915050565b7f556e617574686f72697a656420666f7220636c75620000000000000000000000600082015250565b600061234a601583611d6c565b915061235582612314565b602082019050919050565b600060208201905081810360008301526123798161233d565b9050919050565b600061238b8261176b565b91506123968361176b565b92508282019050808211156123ae576123ad611f6c565b5b92915050565b60006123bf8261176b565b91506123ca8361176b565b92508282039050818111156123e2576123e1611f6c565b5b92915050565b7f4e487b7100000000000000000000000000000000000000000000000000000000600052603260045260246000fd5b7f4e487b7100000000000000000000000000000000000000000000000000000000600052603160045260246000fdfea2646970667358221220a7de7502c3811f2fa97fcfc4811263b0c69cc5d25ec94a2864fabcd03937898364736f6c63430008180033",
  "linkReferences": {},
  "deployedLinkReferences": {}
}