{
  "_format": "hh-sol-artifact-1",
  "contractName": "SuiaClub",
  "sourceName": "contracts/Club.sol",
  "abi": [
    {
      "inputs": [],
      "name": "InvalidInitialization",
      "type": "error"
    },
    {
      "inputs": [],
      "name": "NotInitializing",
      "type": "error"
    },
    {
      "inputs": [
        {
          "internalType": "address",
          "name": "owner",
          "type": "address"
        }
      ],
      "name": "OwnableInvalidOwner",
      "type": "error"
    },
    {
      "inputs": [
        {
          "internalType": "address",
          "name": "account",
          "type": "address"
        }
      ],
      "name": "OwnableUnauthorizedAccount",
      "type": "error"
    },
    {
      "anonymous": false,
      "inputs": [
        {
          "indexed": true,
          "internalType": "uint256",
          "name": "club_id",
          "type": "uint256"
        },
        {
          "indexed": true,
          "internalType": "uint256",
          "name": "channel_index",
          "type": "uint256"
        },
        {
          "indexed": true,
          "internalType": "string",
          "name": "name",
          "type": "string"
        }
      ],
      "name": "ChannelCreated",
      "type": "event"
    },
    {
      "anonymous": false,
      "inputs": [
        {
          "indexed": true,
          "internalType": "uint256",
          "name": "id",
          "type": "uint256"
        },
        {
          "indexed": true,
          "internalType": "address",
          "name": "owner",
          "type": "address"
        },
        {
          "indexed": true,
          "internalType": "string",
          "name": "name",
          "type": "string"
        },
        {
          "indexed": false,
          "internalType": "string",
          "name": "description",
          "type": "string"
        },
        {
          "indexed": false,
          "internalType": "string",
          "name": "logo",
          "type": "string"
        },
        {
          "indexed": false,
          "internalType": "string",
          "name": "threshold_type",
          "type": "string"
        },
        {
          "indexed": false,
          "internalType": "uint256",
          "name": "threshold",
          "type": "uint256"
        }
      ],
      "name": "ClubCreated",
      "type": "event"
    },
    {
      "anonymous": false,
      "inputs": [
        {
          "indexed": false,
          "internalType": "uint64",
          "name": "version",
          "type": "uint64"
        }
      ],
      "name": "Initialized",
      "type": "event"
    },
    {
      "anonymous": false,
      "inputs": [
        {
          "indexed": true,
          "internalType": "address",
          "name": "previousOwner",
          "type": "address"
        },
        {
          "indexed": true,
          "internalType": "address",
          "name": "newOwner",
          "type": "address"
        }
      ],
      "name": "OwnershipTransferred",
      "type": "event"
    },
    {
      "inputs": [
        {
          "internalType": "uint256",
          "name": "_club_id",
          "type": "uint256"
        },
        {
          "internalType": "address",
          "name": "_admin",
          "type": "address"
        }
      ],
      "name": "add_club_admin",
      "outputs": [],
      "stateMutability": "nonpayable",
      "type": "function"
    },
    {
      "inputs": [
        {
          "internalType": "uint256",
          "name": "_club_id",
          "type": "uint256"
        },
        {
          "internalType": "string",
          "name": "_name",
          "type": "string"
        }
      ],
      "name": "add_club_channel",
      "outputs": [],
      "stateMutability": "nonpayable",
      "type": "function"
    },
    {
      "inputs": [
        {
          "internalType": "uint256",
          "name": "",
          "type": "uint256"
        },
        {
          "internalType": "uint256",
          "name": "",
          "type": "uint256"
        }
      ],
      "name": "channels",
      "outputs": [
        {
          "internalType": "string",
          "name": "name",
          "type": "string"
        },
        {
          "internalType": "bool",
          "name": "deleted",
          "type": "bool"
        }
      ],
      "stateMutability": "view",
      "type": "function"
    },
    {
      "inputs": [],
      "name": "club_count",
      "outputs": [
        {
          "internalType": "uint256",
          "name": "",
          "type": "uint256"
        }
      ],
      "stateMutability": "view",
      "type": "function"
    },
    {
      "inputs": [
        {
          "internalType": "address",
          "name": "",
          "type": "address"
        },
        {
          "internalType": "uint256",
          "name": "",
          "type": "uint256"
        }
      ],
      "name": "club_owner_to_ids",
      "outputs": [
        {
          "internalType": "uint256",
          "name": "",
          "type": "uint256"
        }
      ],
      "stateMutability": "view",
      "type": "function"
    },
    {
      "inputs": [
        {
          "internalType": "string",
          "name": "",
          "type": "string"
        },
        {
          "internalType": "uint256",
          "name": "",
          "type": "uint256"
        }
      ],
      "name": "club_threshold_type_to_ids",
      "outputs": [
        {
          "internalType": "uint256",
          "name": "",
          "type": "uint256"
        }
      ],
      "stateMutability": "view",
      "type": "function"
    },
    {
      "inputs": [
        {
          "internalType": "uint256",
          "name": "",
          "type": "uint256"
        }
      ],
      "name": "clubs",
      "outputs": [
        {
          "internalType": "uint256",
          "name": "id",
          "type": "uint256"
        },
        {
          "internalType": "address",
          "name": "owner",
          "type": "address"
        },
        {
          "internalType": "string",
          "name": "name",
          "type": "string"
        },
        {
          "internalType": "string",
          "name": "description",
          "type": "string"
        },
        {
          "internalType": "string",
          "name": "logo",
          "type": "string"
        },
        {
          "internalType": "string",
          "name": "threshold_type",
          "type": "string"
        },
        {
          "internalType": "uint256",
          "name": "threshold",
          "type": "uint256"
        },
        {
          "internalType": "string",
          "name": "announcement",
          "type": "string"
        },
        {
          "internalType": "uint256",
          "name": "channel_count",
          "type": "uint256"
        }
      ],
      "stateMutability": "view",
      "type": "function"
    },
    {
      "inputs": [
        {
          "internalType": "string",
          "name": "_name",
          "type": "string"
        },
        {
          "internalType": "string",
          "name": "_logo",
          "type": "string"
        },
        {
          "internalType": "string",
          "name": "_description",
          "type": "string"
        },
        {
          "internalType": "string",
          "name": "_announcement",
          "type": "string"
        },
        {
          "internalType": "string",
          "name": "_threshold_type",
          "type": "string"
        },
        {
          "internalType": "uint256",
          "name": "_threshold",
          "type": "uint256"
        },
        {
          "internalType": "string",
          "name": "_default_channel_name",
          "type": "string"
        }
      ],
      "name": "create_club",
      "outputs": [],
      "stateMutability": "payable",
      "type": "function"
    },
    {
      "inputs": [
        {
          "internalType": "uint256",
          "name": "_club_id",
          "type": "uint256"
        },
        {
          "internalType": "uint256",
          "name": "_channel_index",
          "type": "uint256"
        }
      ],
      "name": "delete_club_channel",
      "outputs": [],
      "stateMutability": "nonpayable",
      "type": "function"
    },
    {
      "inputs": [],
      "name": "fee",
      "outputs": [
        {
          "internalType": "uint256",
          "name": "",
          "type": "uint256"
        }
      ],
      "stateMutability": "view",
      "type": "function"
    },
    {
      "inputs": [
        {
          "internalType": "address",
          "name": "_owner",
          "type": "address"
        }
      ],
      "name": "get_clubs_by_owner",
      "outputs": [
        {
          "internalType": "uint256[]",
          "name": "",
          "type": "uint256[]"
        }
      ],
      "stateMutability": "view",
      "type": "function"
    },
    {
      "inputs": [
        {
          "internalType": "string",
          "name": "_threshold_type",
          "type": "string"
        }
      ],
      "name": "get_clubs_by_threshold_type",
      "outputs": [
        {
          "internalType": "uint256[]",
          "name": "",
          "type": "uint256[]"
        }
      ],
      "stateMutability": "view",
      "type": "function"
    },
    {
      "inputs": [
        {
          "internalType": "uint256",
          "name": "_fee",
          "type": "uint256"
        }
      ],
      "name": "initialize",
      "outputs": [],
      "stateMutability": "nonpayable",
      "type": "function"
    },
    {
      "inputs": [
        {
          "internalType": "uint256",
          "name": "_club_id",
          "type": "uint256"
        },
        {
          "internalType": "address",
          "name": "_user",
          "type": "address"
        }
      ],
      "name": "is_authorized_for_club",
      "outputs": [
        {
          "internalType": "bool",
          "name": "",
          "type": "bool"
        }
      ],
      "stateMutability": "view",
      "type": "function"
    },
    {
      "inputs": [],
      "name": "owner",
      "outputs": [
        {
          "internalType": "address",
          "name": "",
          "type": "address"
        }
      ],
      "stateMutability": "view",
      "type": "function"
    },
    {
      "inputs": [
        {
          "internalType": "uint256",
          "name": "_club_id",
          "type": "uint256"
        },
        {
          "internalType": "address",
          "name": "_admin",
          "type": "address"
        }
      ],
      "name": "remove_club_admin",
      "outputs": [],
      "stateMutability": "nonpayable",
      "type": "function"
    },
    {
      "inputs": [],
      "name": "renounceOwnership",
      "outputs": [],
      "stateMutability": "nonpayable",
      "type": "function"
    },
    {
      "inputs": [
        {
          "internalType": "uint256",
          "name": "_fee",
          "type": "uint256"
        }
      ],
      "name": "set_fee",
      "outputs": [],
      "stateMutability": "nonpayable",
      "type": "function"
    },
    {
      "inputs": [
        {
          "internalType": "address",
          "name": "newOwner",
          "type": "address"
        }
      ],
      "name": "transferOwnership",
      "outputs": [],
      "stateMutability": "nonpayable",
      "type": "function"
    },
    {
      "inputs": [
        {
          "internalType": "uint256",
          "name": "_club_id",
          "type": "uint256"
        },
        {
          "internalType": "string",
          "name": "_announcement",
          "type": "string"
        }
      ],
      "name": "update_club_announcement",
      "outputs": [],
      "stateMutability": "nonpayable",
      "type": "function"
    },
    {
      "inputs": [
        {
          "internalType": "uint256",
          "name": "_club_id",
          "type": "uint256"
        },
        {
          "internalType": "uint256",
          "name": "_channel_index",
          "type": "uint256"
        },
        {
          "internalType": "string",
          "name": "_name",
          "type": "string"
        }
      ],
      "name": "update_club_channel_name",
      "outputs": [],
      "stateMutability": "nonpayable",
      "type": "function"
    },
    {
      "inputs": [
        {
          "internalType": "uint256",
          "name": "_club_id",
          "type": "uint256"
        },
        {
          "internalType": "string",
          "name": "_description",
          "type": "string"
        }
      ],
      "name": "update_club_description",
      "outputs": [],
      "stateMutability": "nonpayable",
      "type": "function"
    },
    {
      "inputs": [
        {
          "internalType": "uint256",
          "name": "_club_id",
          "type": "uint256"
        },
        {
          "internalType": "string",
          "name": "_logo",
          "type": "string"
        }
      ],
      "name": "update_club_logo",
      "outputs": [],
      "stateMutability": "nonpayable",
      "type": "function"
    },
    {
      "inputs": [
        {
          "internalType": "uint256",
          "name": "_club_id",
          "type": "uint256"
        },
        {
          "internalType": "string",
          "name": "_name",
          "type": "string"
        }
      ],
      "name": "update_club_name",
      "outputs": [],
      "stateMutability": "nonpayable",
      "type": "function"
    },
    {
      "inputs": [
        {
          "internalType": "uint256",
          "name": "_club_id",
          "type": "uint256"
        },
        {
          "internalType": "string",
          "name": "_threshold_type",
          "type": "string"
        },
        {
          "internalType": "uint256",
          "name": "_threshold",
          "type": "uint256"
        }
      ],
      "name": "update_club_threshold",
      "outputs": [],
      "stateMutability": "nonpayable",
      "type": "function"
    },
    {
      "inputs": [],
      "name": "withdraw",
      "outputs": [],
      "stateMutability": "nonpayable",
      "type": "function"
    }
  ],
  "bytecode": "0x608060405234801561001057600080fd5b50612df5806100206000396000f3fe6080604052600436106101815760003560e01c806373c2a228116100d1578063af260c8c1161008a578063dc00107611610064578063dc00107614610574578063ddca3f431461059d578063f2fde38b146105c8578063fe4b84df146105f157610181565b8063af260c8c146104d0578063af998db51461050e578063b374dfce1461053757610181565b806373c2a228146103bc57806375f5531c146103e55780638b50269f1461040e5780638da5cb5b146104375780638e1be43c146104625780639cc009c11461048b57610181565b80633a8f98ae1161013e578063483b39ea11610118578063483b39ea146103165780634fddd7891461033f5780635caa42d214610368578063715018a6146103a557610181565b80633a8f98ae146102975780633ccfd60b146102d457806343a527ca146102eb57610181565b8063172a4fe6146101865780631aa02d59146101af5780631cc8a437146101d85780631d3e5406146102155780632aac523314610252578063346715491461027b575b600080fd5b34801561019257600080fd5b506101ad60048036038101906101a89190611ecf565b61061a565b005b3480156101bb57600080fd5b506101d660048036038101906101d19190611f3e565b610745565b005b3480156101e457600080fd5b506101ff60048036038101906101fa9190611f6b565b610757565b60405161020c9190612072565b60405180910390f35b34801561022157600080fd5b5061023c600480360381019061023791906120f2565b6107cd565b604051610249919061214d565b60405180910390f35b34801561025e57600080fd5b5061027960048036038101906102749190612168565b610897565b005b610295600480360381019061029091906121c4565b61090e565b005b3480156102a357600080fd5b506102be60048036038101906102b9919061230e565b610caf565b6040516102cb9190612072565b60405180910390f35b3480156102e057600080fd5b506102e9610d46565b005b3480156102f757600080fd5b50610300610d9e565b60405161030d919061234a565b60405180910390f35b34801561032257600080fd5b5061033d600480360381019061033891906120f2565b610da4565b005b34801561034b57600080fd5b5061036660048036038101906103619190612168565b610e63565b005b34801561037457600080fd5b5061038f600480360381019061038a9190612365565b610eda565b60405161039c919061234a565b60405180910390f35b3480156103b157600080fd5b506103ba610f0b565b005b3480156103c857600080fd5b506103e360048036038101906103de91906120f2565b610f1f565b005b3480156103f157600080fd5b5061040c600480360381019061040791906123a5565b610fde565b005b34801561041a57600080fd5b5061043560048036038101906104309190612168565b6110a3565b005b34801561044357600080fd5b5061044c6111ef565b6040516104599190612423565b60405180910390f35b34801561046e57600080fd5b5061048960048036038101906104849190612168565b611227565b005b34801561049757600080fd5b506104b260048036038101906104ad9190611f3e565b6112e2565b6040516104c7999897969594939291906124bd565b60405180910390f35b3480156104dc57600080fd5b506104f760048036038101906104f2919061256d565b6115f8565b6040516105059291906125ad565b60405180910390f35b34801561051a57600080fd5b506105356004803603810190610530919061256d565b6116be565b005b34801561054357600080fd5b5061055e600480360381019061055991906125dd565b6117af565b60405161056b919061234a565b60405180910390f35b34801561058057600080fd5b5061059b60048036038101906105969190612168565b6117f6565b005b3480156105a957600080fd5b506105b261186d565b6040516105bf919061234a565b60405180910390f35b3480156105d457600080fd5b506105ef60048036038101906105ea919061230e565b611873565b005b3480156105fd57600080fd5b5061061860048036038101906106139190611f3e565b6118f9565b005b600081511161065e576040517f08c379a000000000000000000000000000000000000000000000000000000000815260040161065590612685565b60405180910390fd5b61066883336107cd565b6106a7576040517f08c379a000000000000000000000000000000000000000000000000000000000815260040161069e906126f1565b60405180910390fd5b600060016000858152602001908152602001600020905080600801548310610704576040517f08c379a00000000000000000000000000000000000000000000000000000000081526004016106fb9061275d565b60405180910390fd5b600060036000868152602001908152602001600020600085815260200190815260200160002090508281600001908161073d9190612989565b505050505050565b61074d611a8f565b8060008190555050565b60606004826040516107699190612a97565b90815260200160405180910390208054806020026020016040519081016040528092919081815260200182805480156107c157602002820191906000526020600020905b8154815260200190600101908083116107ad575b50505050509050919050565b6000806001600085815260200190815260200160002090508060010160009054906101000a900473ffffffffffffffffffffffffffffffffffffffff1673ffffffffffffffffffffffffffffffffffffffff168373ffffffffffffffffffffffffffffffffffffffff16148061088e57508060090160008473ffffffffffffffffffffffffffffffffffffffff1673ffffffffffffffffffffffffffffffffffffffff16815260200190815260200160002060009054906101000a900460ff165b91505092915050565b6108a182336107cd565b6108e0576040517f08c379a00000000000000000000000000000000000000000000000000000000081526004016108d7906126f1565b60405180910390fd5b6000600160008481526020019081526020016000209050818160030190816109089190612989565b50505050565b600054341015610953576040517f08c379a000000000000000000000000000000000000000000000000000000000815260040161094a90612b20565b60405180910390fd5b6000875111610997576040517f08c379a000000000000000000000000000000000000000000000000000000000815260040161098e90612b8c565b60405180910390fd5b60008351116109db576040517f08c379a00000000000000000000000000000000000000000000000000000000081526004016109d290612bf8565b60405180910390fd5b6000815111610a1f576040517f08c379a0000000000000000000000000000000000000000000000000000000008152600401610a1690612c64565b60405180910390fd5b6000600254905060026000815480929190610a3990612cb3565b91905055506000600160008381526020019081526020016000209050818160000181905550338160010160006101000a81548173ffffffffffffffffffffffffffffffffffffffff021916908373ffffffffffffffffffffffffffffffffffffffff16021790555088816002019081610ab29190612989565b5086816003019081610ac49190612989565b5087816004019081610ad69190612989565b5084816005019081610ae89190612989565b5083816006018190555085816007019081610b039190612989565b50600181600801819055506000600360008481526020019081526020016000206000808152602001908152602001600020905083816000019081610b479190612989565b50600486604051610b589190612a97565b9081526020016040518091039020839080600181540180825580915050600190039060005260206000200160009091909190915055600560003373ffffffffffffffffffffffffffffffffffffffff1673ffffffffffffffffffffffffffffffffffffffff16815260200190815260200160002083908060018154018082558091505060019003906000526020600020016000909190919091505589604051610c019190612a97565b60405180910390203373ffffffffffffffffffffffffffffffffffffffff16847fe9bb3a6127a45646a990e0cda50ea43a9497824cdd41d178c95678cc4b54302d8b8d8b8b604051610c569493929190612cfb565b60405180910390a483604051610c6c9190612a97565b60405180910390206000847f3296cc383732a74ae3b14a2c13f55e981ee6f734cfcdddec730bec172e72817560405160405180910390a450505050505050505050565b6060600560008373ffffffffffffffffffffffffffffffffffffffff1673ffffffffffffffffffffffffffffffffffffffff168152602001908152602001600020805480602002602001604051908101604052809291908181526020018280548015610d3a57602002820191906000526020600020905b815481526020019060010190808311610d26575b50505050509050919050565b610d4e611a8f565b610d566111ef565b73ffffffffffffffffffffffffffffffffffffffff166108fc479081150290604051600060405180830381858888f19350505050158015610d9b573d6000803e3d6000fd5b50565b60025481565b610dae82336107cd565b610ded576040517f08c379a0000000000000000000000000000000000000000000000000000000008152600401610de4906126f1565b60405180910390fd5b600060016000848152602001908152602001600020905060008160090160008473ffffffffffffffffffffffffffffffffffffffff1673ffffffffffffffffffffffffffffffffffffffff16815260200190815260200160002060006101000a81548160ff021916908315150217905550505050565b610e6d82336107cd565b610eac576040517f08c379a0000000000000000000000000000000000000000000000000000000008152600401610ea3906126f1565b60405180910390fd5b600060016000848152602001908152602001600020905081816004019081610ed49190612989565b50505050565b60056020528160005260406000208181548110610ef657600080fd5b90600052602060002001600091509150505481565b610f13611a8f565b610f1d6000611b16565b565b610f2982336107cd565b610f68576040517f08c379a0000000000000000000000000000000000000000000000000000000008152600401610f5f906126f1565b60405180910390fd5b600060016000848152602001908152602001600020905060018160090160008473ffffffffffffffffffffffffffffffffffffffff1673ffffffffffffffffffffffffffffffffffffffff16815260200190815260200160002060006101000a81548160ff021916908315150217905550505050565b6000825111611022576040517f08c379a000000000000000000000000000000000000000000000000000000000815260040161101990612bf8565b60405180910390fd5b61102c83336107cd565b61106b576040517f08c379a0000000000000000000000000000000000000000000000000000000008152600401611062906126f1565b60405180910390fd5b6000600160008581526020019081526020016000209050828160050190816110939190612989565b5081816006018190555050505050565b60008151116110e7576040517f08c379a00000000000000000000000000000000000000000000000000000000081526004016110de90612685565b60405180910390fd5b6110f182336107cd565b611130576040517f08c379a0000000000000000000000000000000000000000000000000000000008152600401611127906126f1565b60405180910390fd5b600060016000848152602001908152602001600020905060008160080154905081600801600081548092919061116590612cb3565b919050555060006003600086815260200190815260200160002060008381526020019081526020016000209050838160000190816111a39190612989565b50836040516111b29190612a97565b604051809103902082867f3296cc383732a74ae3b14a2c13f55e981ee6f734cfcdddec730bec172e72817560405160405180910390a45050505050565b6000806111fa611bed565b90508060000160009054906101000a900473ffffffffffffffffffffffffffffffffffffffff1691505090565b600081511161126b576040517f08c379a000000000000000000000000000000000000000000000000000000000815260040161126290612b8c565b60405180910390fd5b61127582336107cd565b6112b4576040517f08c379a00000000000000000000000000000000000000000000000000000000081526004016112ab906126f1565b60405180910390fd5b6000600160008481526020019081526020016000209050818160020190816112dc9190612989565b50505050565b60016020528060005260406000206000915090508060000154908060010160009054906101000a900473ffffffffffffffffffffffffffffffffffffffff1690806002018054611331906127ac565b80601f016020809104026020016040519081016040528092919081815260200182805461135d906127ac565b80156113aa5780601f1061137f576101008083540402835291602001916113aa565b820191906000526020600020905b81548152906001019060200180831161138d57829003601f168201915b5050505050908060030180546113bf906127ac565b80601f01602080910402602001604051908101604052809291908181526020018280546113eb906127ac565b80156114385780601f1061140d57610100808354040283529160200191611438565b820191906000526020600020905b81548152906001019060200180831161141b57829003601f168201915b50505050509080600401805461144d906127ac565b80601f0160208091040260200160405190810160405280929190818152602001828054611479906127ac565b80156114c65780601f1061149b576101008083540402835291602001916114c6565b820191906000526020600020905b8154815290600101906020018083116114a957829003601f168201915b5050505050908060050180546114db906127ac565b80601f0160208091040260200160405190810160405280929190818152602001828054611507906127ac565b80156115545780601f1061152957610100808354040283529160200191611554565b820191906000526020600020905b81548152906001019060200180831161153757829003601f168201915b50505050509080600601549080600701805461156f906127ac565b80601f016020809104026020016040519081016040528092919081815260200182805461159b906127ac565b80156115e85780601f106115bd576101008083540402835291602001916115e8565b820191906000526020600020905b8154815290600101906020018083116115cb57829003601f168201915b5050505050908060080154905089565b600360205281600052604060002060205280600052604060002060009150915050806000018054611628906127ac565b80601f0160208091040260200160405190810160405280929190818152602001828054611654906127ac565b80156116a15780601f10611676576101008083540402835291602001916116a1565b820191906000526020600020905b81548152906001019060200180831161168457829003601f168201915b5050505050908060010160009054906101000a900460ff16905082565b6116c882336107cd565b611707576040517f08c379a00000000000000000000000000000000000000000000000000000000081526004016116fe906126f1565b60405180910390fd5b600060016000848152602001908152602001600020905080600801548210611764576040517f08c379a000000000000000000000000000000000000000000000000000000000815260040161175b9061275d565b60405180910390fd5b6000600360008581526020019081526020016000206000848152602001908152602001600020905060018160010160006101000a81548160ff02191690831515021790555050505050565b60048280516020810182018051848252602083016020850120818352809550505050505081815481106117e157600080fd5b90600052602060002001600091509150505481565b61180082336107cd565b61183f576040517f08c379a0000000000000000000000000000000000000000000000000000000008152600401611836906126f1565b60405180910390fd5b6000600160008481526020019081526020016000209050818160070190816118679190612989565b50505050565b60005481565b61187b611a8f565b600073ffffffffffffffffffffffffffffffffffffffff168173ffffffffffffffffffffffffffffffffffffffff16036118ed5760006040517f1e4fbdf70000000000000000000000000000000000000000000000000000000081526004016118e49190612423565b60405180910390fd5b6118f681611b16565b50565b6000611903611c15565b905060008160000160089054906101000a900460ff1615905060008260000160009054906101000a900467ffffffffffffffff1690506000808267ffffffffffffffff161480156119515750825b9050600060018367ffffffffffffffff16148015611986575060003073ffffffffffffffffffffffffffffffffffffffff163b145b905081158015611994575080155b156119cb576040517ff92ee8a900000000000000000000000000000000000000000000000000000000815260040160405180910390fd5b60018560000160006101000a81548167ffffffffffffffff021916908367ffffffffffffffff1602179055508315611a1b5760018560000160086101000a81548160ff0219169083151502179055505b611a2433611c3d565b856000819055508315611a875760008560000160086101000a81548160ff0219169083151502179055507fc7f505b2f371ae2175ee4913f4499e1f2633a7b5936321eed1cdaeb6115181d26001604051611a7e9190612da4565b60405180910390a15b505050505050565b611a97611c51565b73ffffffffffffffffffffffffffffffffffffffff16611ab56111ef565b73ffffffffffffffffffffffffffffffffffffffff1614611b1457611ad8611c51565b6040517f118cdaa7000000000000000000000000000000000000000000000000000000008152600401611b0b9190612423565b60405180910390fd5b565b6000611b20611bed565b905060008160000160009054906101000a900473ffffffffffffffffffffffffffffffffffffffff169050828260000160006101000a81548173ffffffffffffffffffffffffffffffffffffffff021916908373ffffffffffffffffffffffffffffffffffffffff1602179055508273ffffffffffffffffffffffffffffffffffffffff168173ffffffffffffffffffffffffffffffffffffffff167f8be0079c531659141344cd1fd0a4f28419497f9722a3daafe3b4186f6b6457e060405160405180910390a3505050565b60007f9016d09d72d40fdae2fd8ceac6b6234c7706214fd39c1cd1e609a0528c199300905090565b60007ff0c57e16840df040f15088dc2f81fe391c3923bec73e23a9662efc9c229c6a00905090565b611c45611c59565b611c4e81611c99565b50565b600033905090565b611c61611d1f565b611c97576040517fd7e6bcf800000000000000000000000000000000000000000000000000000000815260040160405180910390fd5b565b611ca1611c59565b600073ffffffffffffffffffffffffffffffffffffffff168173ffffffffffffffffffffffffffffffffffffffff1603611d135760006040517f1e4fbdf7000000000000000000000000000000000000000000000000000000008152600401611d0a9190612423565b60405180910390fd5b611d1c81611b16565b50565b6000611d29611c15565b60000160089054906101000a900460ff16905090565b6000604051905090565b600080fd5b600080fd5b6000819050919050565b611d6681611d53565b8114611d7157600080fd5b50565b600081359050611d8381611d5d565b92915050565b600080fd5b600080fd5b6000601f19601f8301169050919050565b7f4e487b7100000000000000000000000000000000000000000000000000000000600052604160045260246000fd5b611ddc82611d93565b810181811067ffffffffffffffff82111715611dfb57611dfa611da4565b5b80604052505050565b6000611e0e611d3f565b9050611e1a8282611dd3565b919050565b600067ffffffffffffffff821115611e3a57611e39611da4565b5b611e4382611d93565b9050602081019050919050565b82818337600083830152505050565b6000611e72611e6d84611e1f565b611e04565b905082815260208101848484011115611e8e57611e8d611d8e565b5b611e99848285611e50565b509392505050565b600082601f830112611eb657611eb5611d89565b5b8135611ec6848260208601611e5f565b91505092915050565b600080600060608486031215611ee857611ee7611d49565b5b6000611ef686828701611d74565b9350506020611f0786828701611d74565b925050604084013567ffffffffffffffff811115611f2857611f27611d4e565b5b611f3486828701611ea1565b9150509250925092565b600060208284031215611f5457611f53611d49565b5b6000611f6284828501611d74565b91505092915050565b600060208284031215611f8157611f80611d49565b5b600082013567ffffffffffffffff811115611f9f57611f9e611d4e565b5b611fab84828501611ea1565b91505092915050565b600081519050919050565b600082825260208201905092915050565b6000819050602082019050919050565b611fe981611d53565b82525050565b6000611ffb8383611fe0565b60208301905092915050565b6000602082019050919050565b600061201f82611fb4565b6120298185611fbf565b935061203483611fd0565b8060005b8381101561206557815161204c8882611fef565b975061205783612007565b925050600181019050612038565b5085935050505092915050565b6000602082019050818103600083015261208c8184612014565b905092915050565b600073ffffffffffffffffffffffffffffffffffffffff82169050919050565b60006120bf82612094565b9050919050565b6120cf816120b4565b81146120da57600080fd5b50565b6000813590506120ec816120c6565b92915050565b6000806040838503121561210957612108611d49565b5b600061211785828601611d74565b9250506020612128858286016120dd565b9150509250929050565b60008115159050919050565b61214781612132565b82525050565b6000602082019050612162600083018461213e565b92915050565b6000806040838503121561217f5761217e611d49565b5b600061218d85828601611d74565b925050602083013567ffffffffffffffff8111156121ae576121ad611d4e565b5b6121ba85828601611ea1565b9150509250929050565b600080600080600080600060e0888a0312156121e3576121e2611d49565b5b600088013567ffffffffffffffff81111561220157612200611d4e565b5b61220d8a828b01611ea1565b975050602088013567ffffffffffffffff81111561222e5761222d611d4e565b5b61223a8a828b01611ea1565b965050604088013567ffffffffffffffff81111561225b5761225a611d4e565b5b6122678a828b01611ea1565b955050606088013567ffffffffffffffff81111561228857612287611d4e565b5b6122948a828b01611ea1565b945050608088013567ffffffffffffffff8111156122b5576122b4611d4e565b5b6122c18a828b01611ea1565b93505060a06122d28a828b01611d74565b92505060c088013567ffffffffffffffff8111156122f3576122f2611d4e565b5b6122ff8a828b01611ea1565b91505092959891949750929550565b60006020828403121561232457612323611d49565b5b6000612332848285016120dd565b91505092915050565b61234481611d53565b82525050565b600060208201905061235f600083018461233b565b92915050565b6000806040838503121561237c5761237b611d49565b5b600061238a858286016120dd565b925050602061239b85828601611d74565b9150509250929050565b6000806000606084860312156123be576123bd611d49565b5b60006123cc86828701611d74565b935050602084013567ffffffffffffffff8111156123ed576123ec611d4e565b5b6123f986828701611ea1565b925050604061240a86828701611d74565b9150509250925092565b61241d816120b4565b82525050565b60006020820190506124386000830184612414565b92915050565b600081519050919050565b600082825260208201905092915050565b60005b8381101561247857808201518184015260208101905061245d565b60008484015250505050565b600061248f8261243e565b6124998185612449565b93506124a981856020860161245a565b6124b281611d93565b840191505092915050565b6000610120820190506124d3600083018c61233b565b6124e0602083018b612414565b81810360408301526124f2818a612484565b905081810360608301526125068189612484565b9050818103608083015261251a8188612484565b905081810360a083015261252e8187612484565b905061253d60c083018661233b565b81810360e083015261254f8185612484565b905061255f61010083018461233b565b9a9950505050505050505050565b6000806040838503121561258457612583611d49565b5b600061259285828601611d74565b92505060206125a385828601611d74565b9150509250929050565b600060408201905081810360008301526125c78185612484565b90506125d6602083018461213e565b9392505050565b600080604083850312156125f4576125f3611d49565b5b600083013567ffffffffffffffff81111561261257612611611d4e565b5b61261e85828601611ea1565b925050602061262f85828601611d74565b9150509250929050565b7f696e76616c6964206368616e6e656c206e616d65000000000000000000000000600082015250565b600061266f601483612449565b915061267a82612639565b602082019050919050565b6000602082019050818103600083015261269e81612662565b9050919050565b7f556e617574686f72697a656420666f7220636c75620000000000000000000000600082015250565b60006126db601583612449565b91506126e6826126a5565b602082019050919050565b6000602082019050818103600083015261270a816126ce565b9050919050565b7f4368616e6e656c20646f6573206e6f7420657869737400000000000000000000600082015250565b6000612747601683612449565b915061275282612711565b602082019050919050565b600060208201905081810360008301526127768161273a565b9050919050565b7f4e487b7100000000000000000000000000000000000000000000000000000000600052602260045260246000fd5b600060028204905060018216806127c457607f821691505b6020821081036127d7576127d661277d565b5b50919050565b60008190508160005260206000209050919050565b60006020601f8301049050919050565b600082821b905092915050565b60006008830261283f7fffffffffffffffffffffffffffffffffffffffffffffffffffffffffffffffff82612802565b6128498683612802565b95508019841693508086168417925050509392505050565b6000819050919050565b600061288661288161287c84611d53565b612861565b611d53565b9050919050565b6000819050919050565b6128a08361286b565b6128b46128ac8261288d565b84845461280f565b825550505050565b600090565b6128c96128bc565b6128d4818484612897565b505050565b5b818110156128f8576128ed6000826128c1565b6001810190506128da565b5050565b601f82111561293d5761290e816127dd565b612917846127f2565b81016020851015612926578190505b61293a612932856127f2565b8301826128d9565b50505b505050565b600082821c905092915050565b600061296060001984600802612942565b1980831691505092915050565b6000612979838361294f565b9150826002028217905092915050565b6129928261243e565b67ffffffffffffffff8111156129ab576129aa611da4565b5b6129b582546127ac565b6129c08282856128fc565b600060209050601f8311600181146129f357600084156129e1578287015190505b6129eb858261296d565b865550612a53565b601f198416612a01866127dd565b60005b82811015612a2957848901518255600182019150602085019450602081019050612a04565b86831015612a465784890151612a42601f89168261294f565b8355505b6001600288020188555050505b505050505050565b600081905092915050565b6000612a718261243e565b612a7b8185612a5b565b9350612a8b81856020860161245a565b80840191505092915050565b6000612aa38284612a66565b915081905092915050565b7f496e73756666696369656e742066756e647320746f2063726561746520636c7560008201527f6200000000000000000000000000000000000000000000000000000000000000602082015250565b6000612b0a602183612449565b9150612b1582612aae565b604082019050919050565b60006020820190508181036000830152612b3981612afd565b9050919050565b7f696e76616c696420636c7562206e616d65000000000000000000000000000000600082015250565b6000612b76601183612449565b9150612b8182612b40565b602082019050919050565b60006020820190508181036000830152612ba581612b69565b9050919050565b7f696e76616c6964207468726573686f6c64207479706500000000000000000000600082015250565b6000612be2601683612449565b9150612bed82612bac565b602082019050919050565b60006020820190508181036000830152612c1181612bd5565b9050919050565b7f696e76616c69642064656661756c74206368616e6e656c206e616d6500000000600082015250565b6000612c4e601c83612449565b9150612c5982612c18565b602082019050919050565b60006020820190508181036000830152612c7d81612c41565b9050919050565b7f4e487b7100000000000000000000000000000000000000000000000000000000600052601160045260246000fd5b6000612cbe82611d53565b91507fffffffffffffffffffffffffffffffffffffffffffffffffffffffffffffffff8203612cf057612cef612c84565b5b600182019050919050565b60006080820190508181036000830152612d158187612484565b90508181036020830152612d298186612484565b90508181036040830152612d3d8185612484565b9050612d4c606083018461233b565b95945050505050565b6000819050919050565b600067ffffffffffffffff82169050919050565b6000612d8e612d89612d8484612d55565b612861565b612d5f565b9050919050565b612d9e81612d73565b82525050565b6000602082019050612db96000830184612d95565b9291505056fea2646970667358221220ddec7f96a91836f2085b8a384cc08cc5982d0b5bbc4b2bf56849d25c3f58e98f64736f6c63430008180033",
  "linkReferences": {},
  "deployedLinkReferences": {}
}