{
  "_format": "hh-sol-artifact-1",
  "contractName": "SuiaClub",
  "sourceName": "contracts/Club.sol",
  "abi": [
    {
      "inputs": [],
      "name": "InvalidInitialization",
      "type": "error"
    },
    {
      "inputs": [],
      "name": "NotInitializing",
      "type": "error"
    },
    {
      "inputs": [
        {
          "internalType": "address",
          "name": "owner",
          "type": "address"
        }
      ],
      "name": "OwnableInvalidOwner",
      "type": "error"
    },
    {
      "inputs": [
        {
          "internalType": "address",
          "name": "account",
          "type": "address"
        }
      ],
      "name": "OwnableUnauthorizedAccount",
      "type": "error"
    },
    {
      "anonymous": false,
      "inputs": [
        {
          "indexed": true,
          "internalType": "uint256",
          "name": "club_id",
          "type": "uint256"
        },
        {
          "indexed": true,
          "internalType": "uint256",
          "name": "channel_index",
          "type": "uint256"
        },
        {
          "indexed": true,
          "internalType": "string",
          "name": "name",
          "type": "string"
        }
      ],
      "name": "ChannelCreated",
      "type": "event"
    },
    {
      "anonymous": false,
      "inputs": [
        {
          "indexed": true,
          "internalType": "uint256",
          "name": "id",
          "type": "uint256"
        },
        {
          "indexed": true,
          "internalType": "address",
          "name": "owner",
          "type": "address"
        },
        {
          "indexed": true,
          "internalType": "string",
          "name": "name",
          "type": "string"
        },
        {
          "indexed": false,
          "internalType": "string",
          "name": "description",
          "type": "string"
        },
        {
          "indexed": false,
          "internalType": "string",
          "name": "logo",
          "type": "string"
        },
        {
          "indexed": false,
          "internalType": "string",
          "name": "threshold_type",
          "type": "string"
        },
        {
          "indexed": false,
          "internalType": "uint256",
          "name": "threshold",
          "type": "uint256"
        }
      ],
      "name": "ClubCreated",
      "type": "event"
    },
    {
      "anonymous": false,
      "inputs": [
        {
          "indexed": false,
          "internalType": "uint64",
          "name": "version",
          "type": "uint64"
        }
      ],
      "name": "Initialized",
      "type": "event"
    },
    {
      "anonymous": false,
      "inputs": [
        {
          "indexed": true,
          "internalType": "address",
          "name": "previousOwner",
          "type": "address"
        },
        {
          "indexed": true,
          "internalType": "address",
          "name": "newOwner",
          "type": "address"
        }
      ],
      "name": "OwnershipTransferred",
      "type": "event"
    },
    {
      "inputs": [
        {
          "internalType": "uint256",
          "name": "_club_id",
          "type": "uint256"
        },
        {
          "internalType": "address",
          "name": "_admin",
          "type": "address"
        }
      ],
      "name": "add_club_admin",
      "outputs": [],
      "stateMutability": "nonpayable",
      "type": "function"
    },
    {
      "inputs": [
        {
          "internalType": "uint256",
          "name": "_club_id",
          "type": "uint256"
        },
        {
          "internalType": "string",
          "name": "_name",
          "type": "string"
        }
      ],
      "name": "add_club_channel",
      "outputs": [],
      "stateMutability": "nonpayable",
      "type": "function"
    },
    {
      "inputs": [
        {
          "internalType": "uint256",
          "name": "",
          "type": "uint256"
        },
        {
          "internalType": "uint256",
          "name": "",
          "type": "uint256"
        }
      ],
      "name": "channels",
      "outputs": [
        {
          "internalType": "string",
          "name": "name",
          "type": "string"
        },
        {
          "internalType": "bool",
          "name": "deleted",
          "type": "bool"
        }
      ],
      "stateMutability": "view",
      "type": "function"
    },
    {
      "inputs": [],
      "name": "club_count",
      "outputs": [
        {
          "internalType": "uint256",
          "name": "",
          "type": "uint256"
        }
      ],
      "stateMutability": "view",
      "type": "function"
    },
    {
      "inputs": [
        {
          "internalType": "uint256",
          "name": "",
          "type": "uint256"
        }
      ],
      "name": "clubs",
      "outputs": [
        {
          "internalType": "uint256",
          "name": "id",
          "type": "uint256"
        },
        {
          "internalType": "address",
          "name": "owner",
          "type": "address"
        },
        {
          "internalType": "string",
          "name": "name",
          "type": "string"
        },
        {
          "internalType": "string",
          "name": "description",
          "type": "string"
        },
        {
          "internalType": "string",
          "name": "logo",
          "type": "string"
        },
        {
          "internalType": "string",
          "name": "threshold_type",
          "type": "string"
        },
        {
          "internalType": "uint256",
          "name": "threshold",
          "type": "uint256"
        },
        {
          "internalType": "string",
          "name": "announcement",
          "type": "string"
        },
        {
          "internalType": "uint256",
          "name": "channel_count",
          "type": "uint256"
        }
      ],
      "stateMutability": "view",
      "type": "function"
    },
    {
      "inputs": [
        {
          "internalType": "string",
          "name": "_name",
          "type": "string"
        },
        {
          "internalType": "string",
          "name": "_logo",
          "type": "string"
        },
        {
          "internalType": "string",
          "name": "_description",
          "type": "string"
        },
        {
          "internalType": "string",
          "name": "_announcement",
          "type": "string"
        },
        {
          "internalType": "string",
          "name": "_threshold_type",
          "type": "string"
        },
        {
          "internalType": "uint256",
          "name": "_threshold",
          "type": "uint256"
        },
        {
          "internalType": "string",
          "name": "_default_channel_name",
          "type": "string"
        }
      ],
      "name": "create_club",
      "outputs": [],
      "stateMutability": "payable",
      "type": "function"
    },
    {
      "inputs": [
        {
          "internalType": "uint256",
          "name": "_club_id",
          "type": "uint256"
        },
        {
          "internalType": "uint256",
          "name": "_channel_index",
          "type": "uint256"
        }
      ],
      "name": "delete_club_channel",
      "outputs": [],
      "stateMutability": "nonpayable",
      "type": "function"
    },
    {
      "inputs": [],
      "name": "fee",
      "outputs": [
        {
          "internalType": "uint256",
          "name": "",
          "type": "uint256"
        }
      ],
      "stateMutability": "view",
      "type": "function"
    },
    {
      "inputs": [
        {
          "internalType": "uint256",
          "name": "_fee",
          "type": "uint256"
        }
      ],
      "name": "initialize",
      "outputs": [],
      "stateMutability": "nonpayable",
      "type": "function"
    },
    {
      "inputs": [
        {
          "internalType": "uint256",
          "name": "_club_id",
          "type": "uint256"
        },
        {
          "internalType": "address",
          "name": "_user",
          "type": "address"
        }
      ],
      "name": "is_authorized_for_club",
      "outputs": [
        {
          "internalType": "bool",
          "name": "",
          "type": "bool"
        }
      ],
      "stateMutability": "view",
      "type": "function"
    },
    {
      "inputs": [],
      "name": "owner",
      "outputs": [
        {
          "internalType": "address",
          "name": "",
          "type": "address"
        }
      ],
      "stateMutability": "view",
      "type": "function"
    },
    {
      "inputs": [
        {
          "internalType": "uint256",
          "name": "_club_id",
          "type": "uint256"
        },
        {
          "internalType": "address",
          "name": "_admin",
          "type": "address"
        }
      ],
      "name": "remove_club_admin",
      "outputs": [],
      "stateMutability": "nonpayable",
      "type": "function"
    },
    {
      "inputs": [],
      "name": "renounceOwnership",
      "outputs": [],
      "stateMutability": "nonpayable",
      "type": "function"
    },
    {
      "inputs": [
        {
          "internalType": "uint256",
          "name": "_fee",
          "type": "uint256"
        }
      ],
      "name": "set_fee",
      "outputs": [],
      "stateMutability": "nonpayable",
      "type": "function"
    },
    {
      "inputs": [
        {
          "internalType": "address",
          "name": "newOwner",
          "type": "address"
        }
      ],
      "name": "transferOwnership",
      "outputs": [],
      "stateMutability": "nonpayable",
      "type": "function"
    },
    {
      "inputs": [
        {
          "internalType": "uint256",
          "name": "_club_id",
          "type": "uint256"
        },
        {
          "internalType": "string",
          "name": "_announcement",
          "type": "string"
        }
      ],
      "name": "update_club_announcement",
      "outputs": [],
      "stateMutability": "nonpayable",
      "type": "function"
    },
    {
      "inputs": [
        {
          "internalType": "uint256",
          "name": "_club_id",
          "type": "uint256"
        },
        {
          "internalType": "uint256",
          "name": "_channel_index",
          "type": "uint256"
        },
        {
          "internalType": "string",
          "name": "_name",
          "type": "string"
        }
      ],
      "name": "update_club_channel_name",
      "outputs": [],
      "stateMutability": "nonpayable",
      "type": "function"
    },
    {
      "inputs": [
        {
          "internalType": "uint256",
          "name": "_club_id",
          "type": "uint256"
        },
        {
          "internalType": "string",
          "name": "_description",
          "type": "string"
        }
      ],
      "name": "update_club_description",
      "outputs": [],
      "stateMutability": "nonpayable",
      "type": "function"
    },
    {
      "inputs": [
        {
          "internalType": "uint256",
          "name": "_club_id",
          "type": "uint256"
        },
        {
          "internalType": "string",
          "name": "_logo",
          "type": "string"
        }
      ],
      "name": "update_club_logo",
      "outputs": [],
      "stateMutability": "nonpayable",
      "type": "function"
    },
    {
      "inputs": [
        {
          "internalType": "uint256",
          "name": "_club_id",
          "type": "uint256"
        },
        {
          "internalType": "string",
          "name": "_name",
          "type": "string"
        }
      ],
      "name": "update_club_name",
      "outputs": [],
      "stateMutability": "nonpayable",
      "type": "function"
    },
    {
      "inputs": [
        {
          "internalType": "uint256",
          "name": "_club_id",
          "type": "uint256"
        },
        {
          "internalType": "string",
          "name": "_threshold_type",
          "type": "string"
        },
        {
          "internalType": "uint256",
          "name": "_threshold",
          "type": "uint256"
        }
      ],
      "name": "update_club_threshold",
      "outputs": [],
      "stateMutability": "nonpayable",
      "type": "function"
    },
    {
      "inputs": [],
      "name": "withdraw",
      "outputs": [],
      "stateMutability": "nonpayable",
      "type": "function"
    }
  ],
  "bytecode": "0x608060405234801561001057600080fd5b506128c0806100206000396000f3fe6080604052600436106101355760003560e01c806375f5531c116100ab578063af260c8c1161006f578063af260c8c146103cd578063af998db51461040b578063dc00107614610434578063ddca3f431461045d578063f2fde38b14610488578063fe4b84df146104b157610135565b806375f5531c146102e25780638b50269f1461030b5780638da5cb5b146103345780638e1be43c1461035f5780639cc009c11461038857610135565b80633ccfd60b116100fd5780633ccfd60b1461020e57806343a527ca14610225578063483b39ea146102505780634fddd78914610279578063715018a6146102a257806373c2a228146102b957610135565b8063172a4fe61461013a5780631aa02d59146101635780631d3e54061461018c5780632aac5233146101c957806334671549146101f2575b600080fd5b34801561014657600080fd5b50610161600480360381019061015c9190611b5f565b6104da565b005b34801561016f57600080fd5b5061018a60048036038101906101859190611bce565b610605565b005b34801561019857600080fd5b506101b360048036038101906101ae9190611c59565b610617565b6040516101c09190611cb4565b60405180910390f35b3480156101d557600080fd5b506101f060048036038101906101eb9190611ccf565b6106e1565b005b61020c60048036038101906102079190611d2b565b610758565b005b34801561021a57600080fd5b50610223610a4e565b005b34801561023157600080fd5b5061023a610aa6565b6040516102479190611e84565b60405180910390f35b34801561025c57600080fd5b5061027760048036038101906102729190611c59565b610aac565b005b34801561028557600080fd5b506102a0600480360381019061029b9190611ccf565b610b6b565b005b3480156102ae57600080fd5b506102b7610be2565b005b3480156102c557600080fd5b506102e060048036038101906102db9190611c59565b610bf6565b005b3480156102ee57600080fd5b5061030960048036038101906103049190611e9f565b610cb5565b005b34801561031757600080fd5b50610332600480360381019061032d9190611ccf565b610d7a565b005b34801561034057600080fd5b50610349610ec6565b6040516103569190611f1d565b60405180910390f35b34801561036b57600080fd5b5061038660048036038101906103819190611ccf565b610efe565b005b34801561039457600080fd5b506103af60048036038101906103aa9190611bce565b610fb9565b6040516103c499989796959493929190611fb7565b60405180910390f35b3480156103d957600080fd5b506103f460048036038101906103ef9190612067565b6112cf565b6040516104029291906120a7565b60405180910390f35b34801561041757600080fd5b50610432600480360381019061042d9190612067565b611395565b005b34801561044057600080fd5b5061045b60048036038101906104569190611ccf565b611486565b005b34801561046957600080fd5b506104726114fd565b60405161047f9190611e84565b60405180910390f35b34801561049457600080fd5b506104af60048036038101906104aa91906120d7565b611503565b005b3480156104bd57600080fd5b506104d860048036038101906104d39190611bce565b611589565b005b600081511161051e576040517f08c379a000000000000000000000000000000000000000000000000000000000815260040161051590612150565b60405180910390fd5b6105288333610617565b610567576040517f08c379a000000000000000000000000000000000000000000000000000000000815260040161055e906121bc565b60405180910390fd5b6000600160008581526020019081526020016000209050806008015483106105c4576040517f08c379a00000000000000000000000000000000000000000000000000000000081526004016105bb90612228565b60405180910390fd5b60006003600086815260200190815260200160002060008581526020019081526020016000209050828160000190816105fd9190612454565b505050505050565b61060d61171f565b8060008190555050565b6000806001600085815260200190815260200160002090508060010160009054906101000a900473ffffffffffffffffffffffffffffffffffffffff1673ffffffffffffffffffffffffffffffffffffffff168373ffffffffffffffffffffffffffffffffffffffff1614806106d857508060090160008473ffffffffffffffffffffffffffffffffffffffff1673ffffffffffffffffffffffffffffffffffffffff16815260200190815260200160002060009054906101000a900460ff165b91505092915050565b6106eb8233610617565b61072a576040517f08c379a0000000000000000000000000000000000000000000000000000000008152600401610721906121bc565b60405180910390fd5b6000600160008481526020019081526020016000209050818160030190816107529190612454565b50505050565b60005434101561079d576040517f08c379a000000000000000000000000000000000000000000000000000000000815260040161079490612598565b60405180910390fd5b60008751116107e1576040517f08c379a00000000000000000000000000000000000000000000000000000000081526004016107d890612604565b60405180910390fd5b6000835111610825576040517f08c379a000000000000000000000000000000000000000000000000000000000815260040161081c90612670565b60405180910390fd5b6000815111610869576040517f08c379a0000000000000000000000000000000000000000000000000000000008152600401610860906126dc565b60405180910390fd5b60006002549050600260008154809291906108839061272b565b91905055506000600160008381526020019081526020016000209050818160000181905550338160010160006101000a81548173ffffffffffffffffffffffffffffffffffffffff021916908373ffffffffffffffffffffffffffffffffffffffff160217905550888160020190816108fc9190612454565b508681600301908161090e9190612454565b50878160040190816109209190612454565b50848160050190816109329190612454565b508381600601819055508581600701908161094d9190612454565b506001816008018190555060006003600084815260200190815260200160002060008081526020019081526020016000209050838160000190816109919190612454565b50896040516109a091906127af565b60405180910390203373ffffffffffffffffffffffffffffffffffffffff16847fe9bb3a6127a45646a990e0cda50ea43a9497824cdd41d178c95678cc4b54302d8b8d8b8b6040516109f594939291906127c6565b60405180910390a483604051610a0b91906127af565b60405180910390206000847f3296cc383732a74ae3b14a2c13f55e981ee6f734cfcdddec730bec172e72817560405160405180910390a450505050505050505050565b610a5661171f565b610a5e610ec6565b73ffffffffffffffffffffffffffffffffffffffff166108fc479081150290604051600060405180830381858888f19350505050158015610aa3573d6000803e3d6000fd5b50565b60025481565b610ab68233610617565b610af5576040517f08c379a0000000000000000000000000000000000000000000000000000000008152600401610aec906121bc565b60405180910390fd5b600060016000848152602001908152602001600020905060008160090160008473ffffffffffffffffffffffffffffffffffffffff1673ffffffffffffffffffffffffffffffffffffffff16815260200190815260200160002060006101000a81548160ff021916908315150217905550505050565b610b758233610617565b610bb4576040517f08c379a0000000000000000000000000000000000000000000000000000000008152600401610bab906121bc565b60405180910390fd5b600060016000848152602001908152602001600020905081816004019081610bdc9190612454565b50505050565b610bea61171f565b610bf460006117a6565b565b610c008233610617565b610c3f576040517f08c379a0000000000000000000000000000000000000000000000000000000008152600401610c36906121bc565b60405180910390fd5b600060016000848152602001908152602001600020905060018160090160008473ffffffffffffffffffffffffffffffffffffffff1673ffffffffffffffffffffffffffffffffffffffff16815260200190815260200160002060006101000a81548160ff021916908315150217905550505050565b6000825111610cf9576040517f08c379a0000000000000000000000000000000000000000000000000000000008152600401610cf090612670565b60405180910390fd5b610d038333610617565b610d42576040517f08c379a0000000000000000000000000000000000000000000000000000000008152600401610d39906121bc565b60405180910390fd5b600060016000858152602001908152602001600020905082816005019081610d6a9190612454565b5081816006018190555050505050565b6000815111610dbe576040517f08c379a0000000000000000000000000000000000000000000000000000000008152600401610db590612150565b60405180910390fd5b610dc88233610617565b610e07576040517f08c379a0000000000000000000000000000000000000000000000000000000008152600401610dfe906121bc565b60405180910390fd5b6000600160008481526020019081526020016000209050600081600801549050816008016000815480929190610e3c9061272b565b91905055506000600360008681526020019081526020016000206000838152602001908152602001600020905083816000019081610e7a9190612454565b5083604051610e8991906127af565b604051809103902082867f3296cc383732a74ae3b14a2c13f55e981ee6f734cfcdddec730bec172e72817560405160405180910390a45050505050565b600080610ed161187d565b90508060000160009054906101000a900473ffffffffffffffffffffffffffffffffffffffff1691505090565b6000815111610f42576040517f08c379a0000000000000000000000000000000000000000000000000000000008152600401610f3990612604565b60405180910390fd5b610f4c8233610617565b610f8b576040517f08c379a0000000000000000000000000000000000000000000000000000000008152600401610f82906121bc565b60405180910390fd5b600060016000848152602001908152602001600020905081816002019081610fb39190612454565b50505050565b60016020528060005260406000206000915090508060000154908060010160009054906101000a900473ffffffffffffffffffffffffffffffffffffffff169080600201805461100890612277565b80601f016020809104026020016040519081016040528092919081815260200182805461103490612277565b80156110815780601f1061105657610100808354040283529160200191611081565b820191906000526020600020905b81548152906001019060200180831161106457829003601f168201915b50505050509080600301805461109690612277565b80601f01602080910402602001604051908101604052809291908181526020018280546110c290612277565b801561110f5780601f106110e45761010080835404028352916020019161110f565b820191906000526020600020905b8154815290600101906020018083116110f257829003601f168201915b50505050509080600401805461112490612277565b80601f016020809104026020016040519081016040528092919081815260200182805461115090612277565b801561119d5780601f106111725761010080835404028352916020019161119d565b820191906000526020600020905b81548152906001019060200180831161118057829003601f168201915b5050505050908060050180546111b290612277565b80601f01602080910402602001604051908101604052809291908181526020018280546111de90612277565b801561122b5780601f106112005761010080835404028352916020019161122b565b820191906000526020600020905b81548152906001019060200180831161120e57829003601f168201915b50505050509080600601549080600701805461124690612277565b80601f016020809104026020016040519081016040528092919081815260200182805461127290612277565b80156112bf5780601f10611294576101008083540402835291602001916112bf565b820191906000526020600020905b8154815290600101906020018083116112a257829003601f168201915b5050505050908060080154905089565b6003602052816000526040600020602052806000526040600020600091509150508060000180546112ff90612277565b80601f016020809104026020016040519081016040528092919081815260200182805461132b90612277565b80156113785780601f1061134d57610100808354040283529160200191611378565b820191906000526020600020905b81548152906001019060200180831161135b57829003601f168201915b5050505050908060010160009054906101000a900460ff16905082565b61139f8233610617565b6113de576040517f08c379a00000000000000000000000000000000000000000000000000000000081526004016113d5906121bc565b60405180910390fd5b60006001600084815260200190815260200160002090508060080154821061143b576040517f08c379a000000000000000000000000000000000000000000000000000000000815260040161143290612228565b60405180910390fd5b6000600360008581526020019081526020016000206000848152602001908152602001600020905060018160010160006101000a81548160ff02191690831515021790555050505050565b6114908233610617565b6114cf576040517f08c379a00000000000000000000000000000000000000000000000000000000081526004016114c6906121bc565b60405180910390fd5b6000600160008481526020019081526020016000209050818160070190816114f79190612454565b50505050565b60005481565b61150b61171f565b600073ffffffffffffffffffffffffffffffffffffffff168173ffffffffffffffffffffffffffffffffffffffff160361157d5760006040517f1e4fbdf70000000000000000000000000000000000000000000000000000000081526004016115749190611f1d565b60405180910390fd5b611586816117a6565b50565b60006115936118a5565b905060008160000160089054906101000a900460ff1615905060008260000160009054906101000a900467ffffffffffffffff1690506000808267ffffffffffffffff161480156115e15750825b9050600060018367ffffffffffffffff16148015611616575060003073ffffffffffffffffffffffffffffffffffffffff163b145b905081158015611624575080155b1561165b576040517ff92ee8a900000000000000000000000000000000000000000000000000000000815260040160405180910390fd5b60018560000160006101000a81548167ffffffffffffffff021916908367ffffffffffffffff16021790555083156116ab5760018560000160086101000a81548160ff0219169083151502179055505b6116b4336118cd565b8560008190555083156117175760008560000160086101000a81548160ff0219169083151502179055507fc7f505b2f371ae2175ee4913f4499e1f2633a7b5936321eed1cdaeb6115181d2600160405161170e919061286f565b60405180910390a15b505050505050565b6117276118e1565b73ffffffffffffffffffffffffffffffffffffffff16611745610ec6565b73ffffffffffffffffffffffffffffffffffffffff16146117a4576117686118e1565b6040517f118cdaa700000000000000000000000000000000000000000000000000000000815260040161179b9190611f1d565b60405180910390fd5b565b60006117b061187d565b905060008160000160009054906101000a900473ffffffffffffffffffffffffffffffffffffffff169050828260000160006101000a81548173ffffffffffffffffffffffffffffffffffffffff021916908373ffffffffffffffffffffffffffffffffffffffff1602179055508273ffffffffffffffffffffffffffffffffffffffff168173ffffffffffffffffffffffffffffffffffffffff167f8be0079c531659141344cd1fd0a4f28419497f9722a3daafe3b4186f6b6457e060405160405180910390a3505050565b60007f9016d09d72d40fdae2fd8ceac6b6234c7706214fd39c1cd1e609a0528c199300905090565b60007ff0c57e16840df040f15088dc2f81fe391c3923bec73e23a9662efc9c229c6a00905090565b6118d56118e9565b6118de81611929565b50565b600033905090565b6118f16119af565b611927576040517fd7e6bcf800000000000000000000000000000000000000000000000000000000815260040160405180910390fd5b565b6119316118e9565b600073ffffffffffffffffffffffffffffffffffffffff168173ffffffffffffffffffffffffffffffffffffffff16036119a35760006040517f1e4fbdf700000000000000000000000000000000000000000000000000000000815260040161199a9190611f1d565b60405180910390fd5b6119ac816117a6565b50565b60006119b96118a5565b60000160089054906101000a900460ff16905090565b6000604051905090565b600080fd5b600080fd5b6000819050919050565b6119f6816119e3565b8114611a0157600080fd5b50565b600081359050611a13816119ed565b92915050565b600080fd5b600080fd5b6000601f19601f8301169050919050565b7f4e487b7100000000000000000000000000000000000000000000000000000000600052604160045260246000fd5b611a6c82611a23565b810181811067ffffffffffffffff82111715611a8b57611a8a611a34565b5b80604052505050565b6000611a9e6119cf565b9050611aaa8282611a63565b919050565b600067ffffffffffffffff821115611aca57611ac9611a34565b5b611ad382611a23565b9050602081019050919050565b82818337600083830152505050565b6000611b02611afd84611aaf565b611a94565b905082815260208101848484011115611b1e57611b1d611a1e565b5b611b29848285611ae0565b509392505050565b600082601f830112611b4657611b45611a19565b5b8135611b56848260208601611aef565b91505092915050565b600080600060608486031215611b7857611b776119d9565b5b6000611b8686828701611a04565b9350506020611b9786828701611a04565b925050604084013567ffffffffffffffff811115611bb857611bb76119de565b5b611bc486828701611b31565b9150509250925092565b600060208284031215611be457611be36119d9565b5b6000611bf284828501611a04565b91505092915050565b600073ffffffffffffffffffffffffffffffffffffffff82169050919050565b6000611c2682611bfb565b9050919050565b611c3681611c1b565b8114611c4157600080fd5b50565b600081359050611c5381611c2d565b92915050565b60008060408385031215611c7057611c6f6119d9565b5b6000611c7e85828601611a04565b9250506020611c8f85828601611c44565b9150509250929050565b60008115159050919050565b611cae81611c99565b82525050565b6000602082019050611cc96000830184611ca5565b92915050565b60008060408385031215611ce657611ce56119d9565b5b6000611cf485828601611a04565b925050602083013567ffffffffffffffff811115611d1557611d146119de565b5b611d2185828601611b31565b9150509250929050565b600080600080600080600060e0888a031215611d4a57611d496119d9565b5b600088013567ffffffffffffffff811115611d6857611d676119de565b5b611d748a828b01611b31565b975050602088013567ffffffffffffffff811115611d9557611d946119de565b5b611da18a828b01611b31565b965050604088013567ffffffffffffffff811115611dc257611dc16119de565b5b611dce8a828b01611b31565b955050606088013567ffffffffffffffff811115611def57611dee6119de565b5b611dfb8a828b01611b31565b945050608088013567ffffffffffffffff811115611e1c57611e1b6119de565b5b611e288a828b01611b31565b93505060a0611e398a828b01611a04565b92505060c088013567ffffffffffffffff811115611e5a57611e596119de565b5b611e668a828b01611b31565b91505092959891949750929550565b611e7e816119e3565b82525050565b6000602082019050611e996000830184611e75565b92915050565b600080600060608486031215611eb857611eb76119d9565b5b6000611ec686828701611a04565b935050602084013567ffffffffffffffff811115611ee757611ee66119de565b5b611ef386828701611b31565b9250506040611f0486828701611a04565b9150509250925092565b611f1781611c1b565b82525050565b6000602082019050611f326000830184611f0e565b92915050565b600081519050919050565b600082825260208201905092915050565b60005b83811015611f72578082015181840152602081019050611f57565b60008484015250505050565b6000611f8982611f38565b611f938185611f43565b9350611fa3818560208601611f54565b611fac81611a23565b840191505092915050565b600061012082019050611fcd600083018c611e75565b611fda602083018b611f0e565b8181036040830152611fec818a611f7e565b905081810360608301526120008189611f7e565b905081810360808301526120148188611f7e565b905081810360a08301526120288187611f7e565b905061203760c0830186611e75565b81810360e08301526120498185611f7e565b9050612059610100830184611e75565b9a9950505050505050505050565b6000806040838503121561207e5761207d6119d9565b5b600061208c85828601611a04565b925050602061209d85828601611a04565b9150509250929050565b600060408201905081810360008301526120c18185611f7e565b90506120d06020830184611ca5565b9392505050565b6000602082840312156120ed576120ec6119d9565b5b60006120fb84828501611c44565b91505092915050565b7f696e76616c6964206368616e6e656c206e616d65000000000000000000000000600082015250565b600061213a601483611f43565b915061214582612104565b602082019050919050565b600060208201905081810360008301526121698161212d565b9050919050565b7f556e617574686f72697a656420666f7220636c75620000000000000000000000600082015250565b60006121a6601583611f43565b91506121b182612170565b602082019050919050565b600060208201905081810360008301526121d581612199565b9050919050565b7f4368616e6e656c20646f6573206e6f7420657869737400000000000000000000600082015250565b6000612212601683611f43565b915061221d826121dc565b602082019050919050565b6000602082019050818103600083015261224181612205565b9050919050565b7f4e487b7100000000000000000000000000000000000000000000000000000000600052602260045260246000fd5b6000600282049050600182168061228f57607f821691505b6020821081036122a2576122a1612248565b5b50919050565b60008190508160005260206000209050919050565b60006020601f8301049050919050565b600082821b905092915050565b60006008830261230a7fffffffffffffffffffffffffffffffffffffffffffffffffffffffffffffffff826122cd565b61231486836122cd565b95508019841693508086168417925050509392505050565b6000819050919050565b600061235161234c612347846119e3565b61232c565b6119e3565b9050919050565b6000819050919050565b61236b83612336565b61237f61237782612358565b8484546122da565b825550505050565b600090565b612394612387565b61239f818484612362565b505050565b5b818110156123c3576123b860008261238c565b6001810190506123a5565b5050565b601f821115612408576123d9816122a8565b6123e2846122bd565b810160208510156123f1578190505b6124056123fd856122bd565b8301826123a4565b50505b505050565b600082821c905092915050565b600061242b6000198460080261240d565b1980831691505092915050565b6000612444838361241a565b9150826002028217905092915050565b61245d82611f38565b67ffffffffffffffff81111561247657612475611a34565b5b6124808254612277565b61248b8282856123c7565b600060209050601f8311600181146124be57600084156124ac578287015190505b6124b68582612438565b86555061251e565b601f1984166124cc866122a8565b60005b828110156124f4578489015182556001820191506020850194506020810190506124cf565b86831015612511578489015161250d601f89168261241a565b8355505b6001600288020188555050505b505050505050565b7f496e73756666696369656e742066756e647320746f2063726561746520636c7560008201527f6200000000000000000000000000000000000000000000000000000000000000602082015250565b6000612582602183611f43565b915061258d82612526565b604082019050919050565b600060208201905081810360008301526125b181612575565b9050919050565b7f696e76616c696420636c7562206e616d65000000000000000000000000000000600082015250565b60006125ee601183611f43565b91506125f9826125b8565b602082019050919050565b6000602082019050818103600083015261261d816125e1565b9050919050565b7f696e76616c6964207468726573686f6c64207479706500000000000000000000600082015250565b600061265a601683611f43565b915061266582612624565b602082019050919050565b600060208201905081810360008301526126898161264d565b9050919050565b7f696e76616c69642064656661756c74206368616e6e656c206e616d6500000000600082015250565b60006126c6601c83611f43565b91506126d182612690565b602082019050919050565b600060208201905081810360008301526126f5816126b9565b9050919050565b7f4e487b7100000000000000000000000000000000000000000000000000000000600052601160045260246000fd5b6000612736826119e3565b91507fffffffffffffffffffffffffffffffffffffffffffffffffffffffffffffffff8203612768576127676126fc565b5b600182019050919050565b600081905092915050565b600061278982611f38565b6127938185612773565b93506127a3818560208601611f54565b80840191505092915050565b60006127bb828461277e565b915081905092915050565b600060808201905081810360008301526127e08187611f7e565b905081810360208301526127f48186611f7e565b905081810360408301526128088185611f7e565b90506128176060830184611e75565b95945050505050565b6000819050919050565b600067ffffffffffffffff82169050919050565b600061285961285461284f84612820565b61232c565b61282a565b9050919050565b6128698161283e565b82525050565b60006020820190506128846000830184612860565b9291505056fea2646970667358221220839ad1996651742e8ca1302b06d8af4baeeabe5fc97e0b626cc2b94721155b7064736f6c63430008180033",
  "linkReferences": {},
  "deployedLinkReferences": {}
}